:1000000071C000008FC000008DC000008BC00000D8
:1000100089C0000087C0000085C0000083C00000C8
:1000200081C000007FC000007DC000007BC00000D8
:1000300079C0000077C0000075C0000073C00000E8
:1000400071C000006FC000006DC000006BC00000F8
:1000500069C0000067C0000065C0000063C0000008
:1000600061C000005FC000005DC000005BC0000018
:1000700059C0000057C0000055C0000053C0000028
:1000800051C000004FC000004DC000004BC0000038
:1000900073C4000047C0000045C0000043C000001A
:1000A00041C000003FC000003DC000003BC0000058
:1000B00039C0000037C0000035C0000033C0000068
:1000C00031C000002FC000002DC000002BC0000078
:1000D00029C0000027C0000025C0000023C0000088
:1000E00021C0000011241FBECFEFD1E2DEBFCDBF83
:1000F00000E00CBF13E0A0E0B2E0EEEDF5E100E0BF
:100100000BBF02C007900D92A439B107D9F724E0C4
:10011000A4E9B3E001C01D92AD33B207E1F799D075
:100120000C94ED0A6DCF1198099A2FEF80EE90E0B4
:10013000215080409040E1F700C00000119A0998DA
:100140000895CF92DF92EF92FF92C12CD12C7601CD
:1001500014C08AE08A95F1F700C020E030E040E06A
:1001600050E4C701B601BDD46B017C0120E030E052
:1001700040E752E441D688233CF40199EACF019B41
:10018000FECF019904C005C080E090E002C081E08C
:1001900090E0FF90EF90DF90CF900895CF9302C052
:1001A000019B02C00199FCCFDC01805B9F4F61E0A5
:1001B00070E025C0019BFECF019B0EC020E030E027
:1001C000CAE0CA95F1F700C02E5F3F4F0199F8CF02
:1001D0002731310534F402C020E030E011961C9242
:1001E0001E922D33310514F071836083329612967E
:1001F0004E175F07F9F6DA014817590729F0AD01E4
:10020000405F5F4FFD01D6CFCF910895AB014150C4
:10021000504F42955295507F5427407F5427840F6A
:10022000951FFC017096AC0180E090E021E030E089
:10023000B291A2912A9FB0012B9F700D3A9F700D31
:100240001124860F971F220F331FE417F50781F73C
:100250000895CF93DF93CDB7DEB7C65ED1090FB651
:10026000F894DEBF0FBECDBF60E072EC81E090E09D
:10027000F9D37894FCD18823E9F383E00CD280E0B1
:10028000C3D180E08ED197D2833029F460E072E050
:100290008BE092E033D28FD2833029F460E072E0B9
:1002A0008BE092E02BD23FDF4CDF892BA1F3CE0114
:1002B00089569F4F73DF63E070E0CE0189569F4FF0
:1002C000A5DFAE014F5F5F4F61E070E091D32FEF8C
:1002D00039E582E692E02150304080409040D9F7E5
:1002E00000C0000061E070E0CE0189569F4F8EDFB4
:1002F000AE014F5F5F4F62E070E07AD32FEF39E5D8
:1003000082E692E02150304080409040D9F700C012
:100310000000C1CF2F923F924F925F926F927F92D7
:100320008F929F92AF92BF92CF92DF92EF92FF9205
:100330000F931F93CF93DF93CDB7DEB72C970FB6F4
:10034000F894DEBF0FBECDBF9E838D832DB73EB721
:100350003C872B87FC0101900020E9F731975F0172
:10036000A81AB90ABB24A5014150510958874F83E7
:100370008DB79EB78A199B090FB6F8949EBF0FBE22
:100380008DBFADB7BEB711964D018091940390918A
:100390009503A0919603B0919703803F984DAF4F7E
:1003A000BF4F61F41092940310929503109296033C
:1003B0001092970382E080933C0499C019821A82BC
:1003C0001B821C822F803884280C391C94012F5FDB
:1003D0003F4F3A87298780913C04843011F4109272
:1003E0003C04ECE9F3E001900020E9F73197CF01FC
:1003F0008C5993406C01E12CF12CC114D104E1041F
:10040000F10409F44FC08FE99FE00197F1F700C0B4
:10041000000029813A814B815C812F5F3F4F4F4F14
:100420005F4F29833A834B835C83ECE9F3E00190CF
:100430000020E9F73197CF018C599340A0E0B0E05C
:10044000C816D906EA06FB0669F50CE913E0412C4B
:10045000512C32014F81588569857A85C401A9D50F
:10046000D8018D918D01F1018083A5016D817E817F
:10047000C401B0D5892B61F41092940310929503B6
:10048000109296031092970381E080933C042FC052
:10049000FFEF4F1A5F0A6F0A7F0A4C145D046E0467
:1004A0007F04C1F68FE99FE00197F1F700C00000DB
:1004B00029813A814B815C812F5F3F4F4F4F5F4FC6
:1004C00029833A834B835C838091940390919503B5
:1004D000A0919603B0919703805F984DAF4FBF4FA7
:1004E000281739074A075B0708F475CF5BCF4B85A0
:1004F0005C850FB6F8945EBF0FBE4DBF2C960FB64D
:10050000F894DEBF0FBECDBFDF91CF911F910F9149
:10051000FF90EF90DF90CF90BF90AF909F908F9023
:100520007F906F905F904F903F902F90089580EA5A
:10053000ECE9F3E0DF011D928A95E9F710929B0345
:1005400010929A0310929903109298030895CF93F2
:10055000DF93EC0184E080933C04CE01DBDE8091EC
:100560003C048823D1F3DF91CF910895F0DF81E03F
:1005700090913C04923009F480E008950F931F930A
:10058000CF93DF938C01EB01D2DFC8019BD289E7C7
:1005900092E098D2CE01EADFDF91CF911F910F91C7
:1005A00008950F931F93CF93DF93CDB7DEB7649772
:1005B0000FB6F894DEBF0FBECDBF8E010F5F1F4F89
:1005C00094E1F80111929A95E9F71F928F9388E1CF
:1005D00092E09F938F931F930F9324D51C8A61E120
:1005E00072E0C801CBDF0F900F900F900F900F902B
:1005F0000F9064960FB6F894DEBF0FBECDBFDF91AB
:10060000CF911F910F9108950F931F93CF93DF9375
:10061000CDB7DEB764970FB6F894DEBF0FBECDBF7F
:100620008E010F5F1F4F94E1F80111929A95E9F73F
:100630001F928F9386E292E09F938F931F930F9365
:10064000F1D41C8A61E172E0C80198DF0F900F902D
:100650000F900F900F900F9064960FB6F894DEBF36
:100660000FBECDBFDF91CF911F910F910895CF9312
:10067000C5E061E172E083E392E080DF811109C0AF
:1006800061E172E088E392E079DF811102C0C1503C
:1006900081F7CF9108950F931F93CF93DF93CDB739
:1006A000DEB764970FB6F894DEBF0FBECDBF8E01E4
:1006B0000F5F1F4F94E1F80111929A95E9F71F928D
:1006C0008F9389E492E09F938F931F930F93AAD403
:1006D0001C8A61E172E0C80151DF0F900F900F900A
:1006E0000F900F900F9064960FB6F894DEBF0FBE78
:1006F000CDBFDF91CF911F910F9108950F931F935D
:10070000CF93DF93CDB7DEB7EC970FB6F894DEBF8B
:100710000FBECDBF8E010F5F1F4F2CE3F80111926A
:100720002A95E9F77F936F939F938F9386E592E0E5
:100730009F938F931F930F9375D41CAE69E672E05D
:10074000C8011CDF0FB6F894DEBF0FBECDBF81110C
:100750001EC06CE772E08CE993E04AD4892BC9F49F
:1007600065E872E08CE993E043D4892BA1F46EE84C
:1007700072E08CE993E03CD4892B79F467E972E06C
:100780008CE993E035D4892B51F485E009C080E0F1
:1007900007C081E005C082E003C083E001C084E0BF
:1007A000EC960FB6F894DEBF0FBECDBFDF91CF91B0
:1007B0001F910F91089561E172E080EA92E0DEDE20
:1007C0006DEA72E08CE993E013D4892BB9F466EBFF
:1007D00072E08CE993E00CD4892B91F46FEB72E01A
:1007E0008CE993E005D4892B69F468EC72E08CE91C
:1007F00093E0FED3892B41F484E0089580E00895CE
:1008000081E0089582E0089583E00895DF92EF92F9
:10081000FF920F931F93CF93DF93CDB7DEB7EC9783
:100820000FB6F894DEBF0FBECDBFD82E162F072F00
:10083000F42EE52EFE0131968CE3DF011D928A95A0
:10084000E9F761ED72E08AED92E098DE882399F095
:10085000EF92FF920F931F9385EE92E09F938F93F9
:10086000CE0101969F938F93DDD30FB6F894DEBF30
:100870000FBECDBF14C0EF92FF920F931F931F9234
:10088000DF928FEF92E09F938F93CE0101969F931B
:100890008F93C8D30FB6F894DEBF0FBECDBF6EE105
:1008A00073E0CE0101966ADE811106C080913C049E
:1008B000823021F085E003C081E001C082E0EC9647
:1008C0000FB6F894DEBF0FBECDBFDF91CF911F9161
:1008D0000F91FF90EF90DF900895EF92FF920F93AA
:1008E0001F93CF93DF93CDB7DEB764970FB6F8941D
:1008F000DEBF0FBECDBF8C01CE0101967C0184E12D
:10090000F70111928A95E9F7F80101900020E9F7C3
:10091000CF01801B910B01969F938F9388E293E008
:100920009F938F93FF92EF927DD31C8A66E373E0CF
:10093000C70124DE6EE373E0C80120DE0F900F9044
:100940000F900F900F900F90811106C080913C0482
:10095000823021F085E003C081E001C082E064962E
:100960000FB6F894DEBF0FBECDBFDF91CF911F91C0
:100970000F91FF90EF9008951F920F920FB60F9274
:1009800011240BB60F922F938F939F93EF93FF93A6
:100990002FB7F894E0919A03F0919B038091CE00D9
:1009A000E456FC4F808380919A0390919B030196BB
:1009B00090939B0380939A0380919A0390919B0359
:1009C000803A910541F410929B0310929A03109281
:1009D0009903109298032FBFFF91EF919F918F91F0
:1009E0002F910F900BBE0F900FBE0F901F90189578
:1009F000EF92FF920F931F93CF93DF93F82EE92E80
:100A0000162F072FD42FC52F4AE453E06DE473E06F
:100A100080E0FCDEED2FFC2F86E9DF011D928A9538
:100A2000E9F7EF92FF920F931F9380E693E09F9375
:100A30008F9381E793E09F938F93CF93DF93F2D2CD
:100A40008D2F9C2F4ADF8DB79EB70A960FB6F8946C
:100A50009EBF0FBE8DBFDF91CF911F910F91FF9071
:100A6000EF900895E8ECF0E0208122602083E9EC2B
:100A7000F0E0208128692083EAECF0E02081246006
:100A800020832CD120E030E040E051E4B9D19B013B
:100A9000AC0160E074E284E79BE487D020E030E0C2
:100AA00040E85FE31DD00FD2E8D06093CC00709394
:100AB000CD0008958093CE00E8ECF0E0808185FFC2
:100AC000FDCF0895CF93DF93EC018881882329F02F
:100AD0002196F0DF89918111FCCFDF91CF910895AC
:100AE0005058BB27AA270ED04DC13ED130F043D17C
:100AF00020F031F49F3F11F41EF433C10EF4E09561
:100B0000E7FB29C1E92F4FD180F3BA1762077307BA
:100B10008407950718F071F49EF567C10EF4E0950F
:100B20000B2EBA2FA02D0B01B90190010C01CA01A7
:100B3000A0011124FF27591B99F0593F50F4503E52
:100B400068F11A16F040A22F232F342F4427585F44
:100B5000F3CF469537952795A795F0405395C9F75C
:100B60007EF41F16BA0B620B730B840BBAF0915014
:100B7000A1F0FF0FBB1F661F771F881FC2F70EC0B3
:100B8000BA0F621F731F841F48F487957795679586
:100B9000B795F7959E3F08F0B3CF9395880F08F06F
:100BA0009927EE0F9795879508950CD0EBC0E3D069
:100BB00040F0DAD030F021F45F3F19F0CCC0511191
:100BC00015C1CFC0F0D098F39923C9F35523B1F3E1
:100BD000951B550BBB27AA2762177307840738F0AC
:100BE0009F5F5F4F220F331F441FAA1FA9F333D00B
:100BF0000E2E3AF0E0E830D091505040E695001CBF
:100C0000CAF729D0FE2F27D0660F771F881FBB1F7A
:100C1000261737074807AB07B0E809F0BB0B802D54
:100C2000BF01FF2793585F4F2AF09E3F510568F0A0
:100C300092C0DCC05F3FECF3983EDCF3869577957D
:100C40006795B795F7959F5FC9F7880F911D9695A2
:100C5000879597F90895E1E0660F771F881FBB1FFE
:100C6000621773078407BA0720F0621B730B840BAB
:100C7000BA0BEE1F88F7E095089504D06894B1117F
:100C8000B5C0089598D088F09F5790F0B92F992754
:100C9000B751A0F0D1F0660F771F881F991F1AF087
:100CA000BA95C9F712C0B13081F09FD0B1E0089574
:100CB0009CC0672F782F8827B85F39F0B93FCCF3F5
:100CC000869577956795B395D9F73EF4909580957D
:100CD000709561957F4F8F4F9F4F0895E89409C09D
:100CE00097FB3EF490958095709561957F4F8F4F5F
:100CF0009F4F9923A9F0F92F96E9BB279395F69575
:100D0000879577956795B795F111F8CFFAF4BB0FF2
:100D100011F460FF1BC06F5F7F4F8F4F9F4F16C056
:100D2000882311F096E911C0772321F09EE8872FE0
:100D3000762F05C0662371F096E8862F70E060E09C
:100D40002AF09A95660F771F881FDAF7880F969515
:100D5000879597F9089597F99F6780E870E060E0BC
:100D600008959FEF80EC089500240A941616170644
:100D700018060906089500240A941216130614068C
:100D800005060895092E0394000C11F4882352F0EF
:100D9000BB0F40F4BF2B11F460FF04C06F5F7F4FA7
:100DA0008F4F9F4F089557FD9058440F551F59F08E
:100DB0005F3F71F04795880F97FB991F61F09F3F48
:100DC00079F087950895121613061406551FF2CF71
:100DD0004695F1DF08C0161617061806991FF1CFC1
:100DE00086957105610508940895E894BB276627E8
:100DF0007727CB0197F9089586D008F48FEF0895EF
:100E00000BD0C0CFB1DF28F0B6DF18F0952309F082
:100E1000A2CFA7CF1124EACFC6DFA0F3959FD1F3CD
:100E2000950F50E0551F629FF001729FBB27F00D98
:100E3000B11D639FAA27F00DB11DAA1F649F6627ED
:100E4000B00DA11D661F829F2227B00DA11D621F3C
:100E5000739FB00DA11D621F839FA00D611D221FF6
:100E6000749F3327A00D611D231F849F600D211DDA
:100E7000822F762F6A2F11249F5750408AF0E1F07D
:100E800088234AF0EE0FFF1FBB1F661F771F881FC6
:100E900091505040A9F79E3F510570F05CCFA6CF0E
:100EA0005F3FECF3983EDCF3869577956795B795B1
:100EB000F795E7959F5FC1F7FE2B880F911D9695DB
:100EC000879597F9089577DFE0F09E37D8F0963947
:100ED000B8F49E3848F4672F782F8827985FF9CFA9
:100EE00086957795679593959539D0F3B62FB17020
:100EF0006B0F711D811D20F48795779567959395EC
:100F000026C040C073CF990F0008550FAA0BE0E828
:100F1000FEEF16161706E807F907C0F012161306BB
:100F2000E407F50798F0621B730B840B950B39F4FB
:100F30000A2661F0232B242B252B21F408950A2661
:100F400009F4A140A6958FEF811D811D0895882386
:100F500071F4772321F09850872B762F07C06623F2
:100F600011F499270DC09051862B70E060E02AF0B3
:100F70009A95660F771F881FDAF7880F96958795E1
:100F800097F908959F3F31F0915020F48795779518
:100F90006795B795880F911D9695879597F9089550
:100FA000FB01DC0102C001900D9241505040D8F786
:100FB00008956817790768F4FB01DC01E40FF51F59
:100FC000A40FB51F02C002900E9241505040D8F7B6
:100FD0000895E6CFFB01DC014150504030F08D9187
:100FE0000190801919F40020B9F7881B990B089516
:100FF000FB0151915523A9F0BF01DC014D9145172B
:101000004111E1F759F4CD010190002049F04D91D3
:1010100040154111C9F3FB014111EFCF81E090E090
:10102000019708950F931F93CF93DF93CDB7DEB74A
:101030002E970FB6F894DEBF0FBECDBF0E891F8965
:1010400086E08C831A8309838FEF9FE79E838D83CD
:10105000AE01465E5F4F688D798DCE01019610D04E
:10106000EF81F885E00FF11F10822E960FB6F894ED
:10107000DEBF0FBECDBFDF91CF911F910F910895BD
:101080002F923F924F925F926F927F928F929F9298
:10109000AF92BF92CF92DF92EF92FF920F931F9386
:1010A000CF93DF93CDB7DEB72B970FB6F894DEBFA3
:1010B0000FBECDBF6C017B018A01FC011782168235
:1010C000838181FFBFC1CE0101963C01F60193816E
:1010D000F70193FD859193FF81917F01882309F4A6
:1010E000ADC1853239F493FD859193FF81917F01E4
:1010F000853221F4B60190E0D6D1E8CF912C212C95
:10110000312CFFE1F315D8F08B3279F038F48032CE
:1011100079F08332A1F4232D20611DC08D3261F05E
:10112000803369F4232D216016C0832D8260382E10
:10113000E32DE4603E2E2AC0F32DF8601DC037FC7D
:101140002DC020ED280F2A3040F08E32B9F436FC45
:1011500075C1232D2064322E19C036FE06C08AE0E8
:10116000989E200D1124922E11C0EAE02E9E200D93
:101170001124222EF32DF0623F2E08C08C3621F46C
:10118000832D8068382E02C0883641F4F70193FD24
:10119000859193FF81917F018111B3CF982F9F7D1E
:1011A0009554933028F40C5F1F4F9FE399830DC033
:1011B000833631F0833771F0833509F055C020C094
:1011C000F801808189830E5F1F4F88248394912CBE
:1011D000530112C02801F2E04F0E511CF801A0800B
:1011E000B18036FE03C0692D70E002C06FEF7FEF63
:1011F000C5014ED14C018201F32DFF773F2E15C062
:10120000280122E0420E511CF801A080B18036FE78
:1012100003C0692D70E002C06FEF7FEFC5012DD1D3
:101220004C01F32DF0683F2E820133FC19C0822D52
:1012300090E088169906A0F4B60180E290E033D1E0
:101240002A94F5CFF50137FC859137FE81915F0136
:10125000B60190E028D121102A9421E0821A910849
:101260008114910479F7E1C0843611F0893639F59B
:10127000F80137FE07C060817181828193810C5F24
:101280001F4F08C060817181072E000C880B990BDD
:101290000E5F1F4FF32DFF763F2E97FF09C09095ED
:1012A0008095709561957F4F8F4F9F4FF0683F2ECF
:1012B0002AE030E0A30133D1882E861844C0853758
:1012C00031F4232D2F7EB22E2AE030E025C0932D5D
:1012D000997FB92E8F36C1F018F4883579F0AEC0F9
:1012E000803719F0883721F0A9C0E92FE061BE2EC0
:1012F000B4FE0DC0FB2DF460BF2E09C034FE0AC041
:10130000292F2660B22E06C028E030E005C020E17B
:1013100030E002C020E132E0F801B7FE07C0608192
:101320007181828193810C5F1F4F06C06081718142
:1013300080E090E00E5F1F4FA301F1D0882E861849
:10134000FB2DFF773F2E36FE0DC0232D2E7FA22EC4
:10135000891458F434FE0BC032FC09C0832D8E7EF4
:10136000A82E05C0B82CA32C03C0B82C01C0B92CE2
:10137000A4FE0FC0FE01E80DF11D8081803321F431
:101380009A2D997EA92E09C0A2FE06C0B394B394EB
:1013900004C08A2D867809F0B394A3FC10C0A0FE87
:1013A00006C0B21480F4280C922C9B180DC0B21405
:1013B00058F4B60180E290E076D0B394F8CFB2143E
:1013C00018F42B1802C0982C212CA4FE0FC0B601D3
:1013D00080E390E068D0A2FE16C0A1FC03C088E7BD
:1013E00090E002C088E590E0B6010CC08A2D8678B6
:1013F00051F0A1FE02C08BE201C080E2A7FC8DE2A9
:10140000B60190E050D0891430F4B60180E390E04A
:101410004AD09A94F8CF8A94F301E80DF11D8081A7
:10142000B60190E040D08110F6CF222009F44ECED4
:10143000B60180E290E037D02A94F7CFF60186819A
:10144000978102C08FEF9FEF2B960FB6F894DEBF07
:101450000FBECDBFDF91CF911F910F91FF90EF9005
:10146000DF90CF90BF90AF909F908F907F906F90C4
:101470005F904F903F902F900895FC010590615030
:1014800070400110D8F7809590958E0F9F1F08959A
:10149000FC016150704001900110D8F78095909543
:1014A0008E0F9F1F08950F931F93CF93DF93FB0120
:1014B000238121FD03C08FEF9FEF2CC022FF16C0B8
:1014C00046815781248135814217530744F4A08116
:1014D000B1819D012F5F3F4F318320838C93268103
:1014E00037812F5F3F4F3783268314C08B01EC0178
:1014F000FB010084F185E02D1995892BE1F6D801D7
:1015000016968D919C911797019617969C938E93A2
:101510001697CE01DF91CF911F910F910895FA0197
:10152000AA27283051F1203181F1E8946F936E7F22
:101530006E5F7F4F8F4F9F4FAF4FB1E03ED0B4E013
:101540003CD0670F781F891F9A1FA11D680F791F54
:101550008A1F911DA11D6A0F711D811D911DA11D65
:1015600020D009F468943F912AE0269F1124301975
:10157000305D3193DEF6CF010895462F4770405D10
:101580004193B3E00FD0C9F7F6CF462F4F70405DBF
:101590004A3318F0495D31FD4052419302D0A9F71A
:1015A000EACFB4E0A6959795879577956795BA9514
:1015B000C9F700976105710508959B01AC010A2EDA
:1015C00006945795479537952795BA95C9F7620FB1
:0E15D000731F841F951FA01D0895F894FFCF70
:1015DE004162633132333F61626300476F6F7365FF
:1015EE00000D0A4F4B0D0A0041542B4349504D4FED
:1015FE0044453D25640041542B4349504D55583DBB
:10160E00256400415445300041540041542B434958
:10161E0050434C4F53453D310041542B43574D4F92
:10162E0044453D25640041542B43574A41503D22C9
:10163E002573222C22257322000D0A574946492074
:10164E00434F4E4E45435445440D0A002B43574AD3
:10165E0041503A31002B43574A41503A32002B4306
:10166E00574A41503A33002B43574A41503A3400BF
:10167E0041542B43495053544154555300535441F4
:10168E005455533A32005354415455533A33005340
:10169E0054415455533A34005354415455533A35EA
:1016AE00004349504D55583A300041542B43495050
:1016BE004D55583F0041542B4349505354415254B9
:1016CE003D22544350222C222573222C2573004197
:1016DE00542B43495053544152543D222564222CDD
:1016EE0022544350222C222573222C257300434F63
:1016FE004E4E4543540D0A0041542B434950534519
:10170E004E443D2564000D0A4F4B0D0A3E000D0A56
:10171E0053454E44204F4B0D0A003830006170691E
:10172E002E7468696E67737065616B2E636F6D00E2
:10173E003930435A384A333859344654364E4D3977
:10174E0000474554202F7570646174653F61706960
:10175E005F6B65793D2573266669656C6425643D0E
:04176E0025640000EE
:00000001FF
